{
  "_format": "hh-sol-artifact-1",
  "contractName": "TwitterContract",
  "sourceName": "contracts/twitterFactory.sol",
  "abi": [
    {
      "anonymous": false,
      "inputs": [
        {
          "indexed": false,
          "internalType": "address",
          "name": "recipient",
          "type": "address"
        },
        {
          "indexed": false,
          "internalType": "uint256",
          "name": "tweetId",
          "type": "uint256"
        }
      ],
      "name": "AddTweet",
      "type": "event"
    },
    {
      "anonymous": false,
      "inputs": [
        {
          "indexed": false,
          "internalType": "uint256",
          "name": "tweetId",
          "type": "uint256"
        }
      ],
      "name": "DeleteTweet",
      "type": "event"
    },
    {
      "anonymous": false,
      "inputs": [
        {
          "indexed": false,
          "internalType": "address",
          "name": "recipient",
          "type": "address"
        },
        {
          "indexed": false,
          "internalType": "uint256",
          "name": "tweetId",
          "type": "uint256"
        },
        {
          "indexed": false,
          "internalType": "bool",
          "name": "deleteStatus",
          "type": "bool"
        }
      ],
      "name": "TweetUpdate",
      "type": "event"
    },
    {
      "inputs": [
        {
          "internalType": "string",
          "name": "_text",
          "type": "string"
        }
      ],
      "name": "addTweet",
      "outputs": [],
      "stateMutability": "nonpayable",
      "type": "function"
    },
    {
      "inputs": [
        {
          "internalType": "uint256",
          "name": "_tweetId",
          "type": "uint256"
        }
      ],
      "name": "deleteTweet",
      "outputs": [],
      "stateMutability": "nonpayable",
      "type": "function"
    },
    {
      "inputs": [],
      "name": "getAllTweets",
      "outputs": [
        {
          "components": [
            {
              "internalType": "uint256",
              "name": "id",
              "type": "uint256"
            },
            {
              "internalType": "address",
              "name": "userName",
              "type": "address"
            },
            {
              "internalType": "bool",
              "name": "isDeleted",
              "type": "bool"
            },
            {
              "internalType": "string",
              "name": "text",
              "type": "string"
            }
          ],
          "internalType": "struct TwitterContract.Tweet[]",
          "name": "",
          "type": "tuple[]"
        }
      ],
      "stateMutability": "view",
      "type": "function"
    },
    {
      "inputs": [],
      "name": "getMyTweets",
      "outputs": [
        {
          "components": [
            {
              "internalType": "uint256",
              "name": "id",
              "type": "uint256"
            },
            {
              "internalType": "address",
              "name": "userName",
              "type": "address"
            },
            {
              "internalType": "bool",
              "name": "isDeleted",
              "type": "bool"
            },
            {
              "internalType": "string",
              "name": "text",
              "type": "string"
            }
          ],
          "internalType": "struct TwitterContract.Tweet[]",
          "name": "",
          "type": "tuple[]"
        }
      ],
      "stateMutability": "view",
      "type": "function"
    },
    {
      "inputs": [
        {
          "internalType": "uint256",
          "name": "_tweetId",
          "type": "uint256"
        },
        {
          "internalType": "string",
          "name": "_text",
          "type": "string"
        },
        {
          "internalType": "bool",
          "name": "_isDeleted",
          "type": "bool"
        }
      ],
      "name": "updateTweet",
      "outputs": [],
      "stateMutability": "nonpayable",
      "type": "function"
    }
  ],
  "bytecode": "0x608060405234801561001057600080fd5b5061155d806100206000396000f3fe608060405234801561001057600080fd5b50600436106100575760003560e01c8063532561351461005c5780635775912a1461007a57806359ee12bc1461009657806366b9c65a146100b2578063aefedbc2146100ce575b600080fd5b6100646100ec565b6040516100719190610e53565b60405180910390f35b610094600480360381019061008f9190610eb5565b6103c7565b005b6100b060048036038101906100ab9190611017565b6104a8565b005b6100cc60048036038101906100c7919061108c565b61062e565b005b6100d661089d565b6040516100e39190610e53565b60405180910390f35b6060600060018054905067ffffffffffffffff81111561010f5761010e610eec565b5b60405190808252806020026020018201604052801561014857816020015b610135610be9565b81526020019060019003908161012d5790505b5090506000805b60018054905081101561030d57600181815481106101705761016f6110fb565b5b906000526020600020906003020160010160149054906101000a900460ff166102fa57600181815481106101a7576101a66110fb565b5b9060005260206000209060030201604051806080016040529081600082015481526020016001820160009054906101000a900473ffffffffffffffffffffffffffffffffffffffff1673ffffffffffffffffffffffffffffffffffffffff1673ffffffffffffffffffffffffffffffffffffffff1681526020016001820160149054906101000a900460ff1615151515815260200160028201805461024b90611159565b80601f016020809104026020016040519081016040528092919081815260200182805461027790611159565b80156102c45780601f10610299576101008083540402835291602001916102c4565b820191906000526020600020905b8154815290600101906020018083116102a757829003601f168201915b5050505050815250508383815181106102e0576102df6110fb565b5b602002602001018190525081806102f6906111b9565b9250505b8080610305906111b9565b91505061014f565b5060008167ffffffffffffffff81111561032a57610329610eec565b5b60405190808252806020026020018201604052801561036357816020015b610350610be9565b8152602001906001900390816103485790505b50905060005b828110156103bd57838181518110610384576103836110fb565b5b602002602001015182828151811061039f5761039e6110fb565b5b602002602001018190525080806103b5906111b9565b915050610369565b5080935050505090565b3373ffffffffffffffffffffffffffffffffffffffff1660008083815260200190815260200160002060009054906101000a900473ffffffffffffffffffffffffffffffffffffffff1673ffffffffffffffffffffffffffffffffffffffff161461043157600080fd5b6001808281548110610446576104456110fb565b5b906000526020600020906003020160010160146101000a81548160ff0219169083151502179055507f9c0cce8d563144cb9d17b3b2fae510e37811e7065b35355f0c438d8cdcdcbd928160405161049d9190611210565b60405180910390a150565b60006001805490509050600160405180608001604052808381526020013373ffffffffffffffffffffffffffffffffffffffff1681526020016000151581526020018481525090806001815401808255809150506001900390600052602060002090600302016000909190919091506000820151816000015560208201518160010160006101000a81548173ffffffffffffffffffffffffffffffffffffffff021916908373ffffffffffffffffffffffffffffffffffffffff16021790555060408201518160010160146101000a81548160ff021916908315150217905550606082015181600201908161059d91906113d7565b5050503360008083815260200190815260200160002060006101000a81548173ffffffffffffffffffffffffffffffffffffffff021916908373ffffffffffffffffffffffffffffffffffffffff1602179055507f8b2db9b424f26463510ef5b02c16f2465836b52081b51d2112ec76102053bdea33826040516106229291906114b8565b60405180910390a15050565b3373ffffffffffffffffffffffffffffffffffffffff1660008085815260200190815260200160002060009054906101000a900473ffffffffffffffffffffffffffffffffffffffff1673ffffffffffffffffffffffffffffffffffffffff161480156106d1575060001515600184815481106106ae576106ad6110fb565b5b906000526020600020906003020160010160149054906101000a900460ff161515145b15610898576000600180549050905060018085815481106106f5576106f46110fb565b5b906000526020600020906003020160010160146101000a81548160ff021916908315150217905550600160405180608001604052808381526020013373ffffffffffffffffffffffffffffffffffffffff16815260200184151581526020018581525090806001815401808255809150506001900390600052602060002090600302016000909190919091506000820151816000015560208201518160010160006101000a81548173ffffffffffffffffffffffffffffffffffffffff021916908373ffffffffffffffffffffffffffffffffffffffff16021790555060408201518160010160146101000a81548160ff021916908315150217905550606082015181600201908161080791906113d7565b5050503360008083815260200190815260200160002060006101000a81548173ffffffffffffffffffffffffffffffffffffffff021916908373ffffffffffffffffffffffffffffffffffffffff1602179055507f6afafdc1cadf6fa6d85480842788f27f663d300e87dc811756f6dc05c277571833858460405161088e939291906114f0565b60405180910390a1505b505050565b6060600060018054905067ffffffffffffffff8111156108c0576108bf610eec565b5b6040519080825280602002602001820160405280156108f957816020015b6108e6610be9565b8152602001906001900390816108de5790505b5090506000805b600180549050811015610b2f573373ffffffffffffffffffffffffffffffffffffffff1660008083815260200190815260200160002060009054906101000a900473ffffffffffffffffffffffffffffffffffffffff1673ffffffffffffffffffffffffffffffffffffffff161480156109b05750600015156001828154811061098d5761098c6110fb565b5b906000526020600020906003020160010160149054906101000a900460ff161515145b15610b1c57600181815481106109c9576109c86110fb565b5b9060005260206000209060030201604051806080016040529081600082015481526020016001820160009054906101000a900473ffffffffffffffffffffffffffffffffffffffff1673ffffffffffffffffffffffffffffffffffffffff1673ffffffffffffffffffffffffffffffffffffffff1681526020016001820160149054906101000a900460ff16151515158152602001600282018054610a6d90611159565b80601f0160208091040260200160405190810160405280929190818152602001828054610a9990611159565b8015610ae65780601f10610abb57610100808354040283529160200191610ae6565b820191906000526020600020905b815481529060010190602001808311610ac957829003601f168201915b505050505081525050838381518110610b0257610b016110fb565b5b60200260200101819052508180610b18906111b9565b9250505b8080610b27906111b9565b915050610900565b5060008167ffffffffffffffff811115610b4c57610b4b610eec565b5b604051908082528060200260200182016040528015610b8557816020015b610b72610be9565b815260200190600190039081610b6a5790505b50905060005b82811015610bdf57838181518110610ba657610ba56110fb565b5b6020026020010151828281518110610bc157610bc06110fb565b5b60200260200101819052508080610bd7906111b9565b915050610b8b565b5080935050505090565b604051806080016040528060008152602001600073ffffffffffffffffffffffffffffffffffffffff168152602001600015158152602001606081525090565b600081519050919050565b600082825260208201905092915050565b6000819050602082019050919050565b6000819050919050565b610c6881610c55565b82525050565b600073ffffffffffffffffffffffffffffffffffffffff82169050919050565b6000610c9982610c6e565b9050919050565b610ca981610c8e565b82525050565b60008115159050919050565b610cc481610caf565b82525050565b600081519050919050565b600082825260208201905092915050565b60005b83811015610d04578082015181840152602081019050610ce9565b60008484015250505050565b6000601f19601f8301169050919050565b6000610d2c82610cca565b610d368185610cd5565b9350610d46818560208601610ce6565b610d4f81610d10565b840191505092915050565b6000608083016000830151610d726000860182610c5f565b506020830151610d856020860182610ca0565b506040830151610d986040860182610cbb565b5060608301518482036060860152610db08282610d21565b9150508091505092915050565b6000610dc98383610d5a565b905092915050565b6000602082019050919050565b6000610de982610c29565b610df38185610c34565b935083602082028501610e0585610c45565b8060005b85811015610e415784840389528151610e228582610dbd565b9450610e2d83610dd1565b925060208a01995050600181019050610e09565b50829750879550505050505092915050565b60006020820190508181036000830152610e6d8184610dde565b905092915050565b6000604051905090565b600080fd5b600080fd5b610e9281610c55565b8114610e9d57600080fd5b50565b600081359050610eaf81610e89565b92915050565b600060208284031215610ecb57610eca610e7f565b5b6000610ed984828501610ea0565b91505092915050565b600080fd5b600080fd5b7f4e487b7100000000000000000000000000000000000000000000000000000000600052604160045260246000fd5b610f2482610d10565b810181811067ffffffffffffffff82111715610f4357610f42610eec565b5b80604052505050565b6000610f56610e75565b9050610f628282610f1b565b919050565b600067ffffffffffffffff821115610f8257610f81610eec565b5b610f8b82610d10565b9050602081019050919050565b82818337600083830152505050565b6000610fba610fb584610f67565b610f4c565b905082815260208101848484011115610fd657610fd5610ee7565b5b610fe1848285610f98565b509392505050565b600082601f830112610ffe57610ffd610ee2565b5b813561100e848260208601610fa7565b91505092915050565b60006020828403121561102d5761102c610e7f565b5b600082013567ffffffffffffffff81111561104b5761104a610e84565b5b61105784828501610fe9565b91505092915050565b61106981610caf565b811461107457600080fd5b50565b60008135905061108681611060565b92915050565b6000806000606084860312156110a5576110a4610e7f565b5b60006110b386828701610ea0565b935050602084013567ffffffffffffffff8111156110d4576110d3610e84565b5b6110e086828701610fe9565b92505060406110f186828701611077565b9150509250925092565b7f4e487b7100000000000000000000000000000000000000000000000000000000600052603260045260246000fd5b7f4e487b7100000000000000000000000000000000000000000000000000000000600052602260045260246000fd5b6000600282049050600182168061117157607f821691505b6020821081036111845761118361112a565b5b50919050565b7f4e487b7100000000000000000000000000000000000000000000000000000000600052601160045260246000fd5b60006111c482610c55565b91507fffffffffffffffffffffffffffffffffffffffffffffffffffffffffffffffff82036111f6576111f561118a565b5b600182019050919050565b61120a81610c55565b82525050565b60006020820190506112256000830184611201565b92915050565b60008190508160005260206000209050919050565b60006020601f8301049050919050565b600082821b905092915050565b60006008830261128d7fffffffffffffffffffffffffffffffffffffffffffffffffffffffffffffffff82611250565b6112978683611250565b95508019841693508086168417925050509392505050565b6000819050919050565b60006112d46112cf6112ca84610c55565b6112af565b610c55565b9050919050565b6000819050919050565b6112ee836112b9565b6113026112fa826112db565b84845461125d565b825550505050565b600090565b61131761130a565b6113228184846112e5565b505050565b5b818110156113465761133b60008261130f565b600181019050611328565b5050565b601f82111561138b5761135c8161122b565b61136584611240565b81016020851015611374578190505b61138861138085611240565b830182611327565b50505b505050565b600082821c905092915050565b60006113ae60001984600802611390565b1980831691505092915050565b60006113c7838361139d565b9150826002028217905092915050565b6113e082610cca565b67ffffffffffffffff8111156113f9576113f8610eec565b5b6114038254611159565b61140e82828561134a565b600060209050601f831160018114611441576000841561142f578287015190505b61143985826113bb565b8655506114a1565b601f19841661144f8661122b565b60005b8281101561147757848901518255600182019150602085019450602081019050611452565b868310156114945784890151611490601f89168261139d565b8355505b6001600288020188555050505b505050505050565b6114b281610c8e565b82525050565b60006040820190506114cd60008301856114a9565b6114da6020830184611201565b9392505050565b6114ea81610caf565b82525050565b600060608201905061150560008301866114a9565b6115126020830185611201565b61151f60408301846114e1565b94935050505056fea2646970667358221220b4f8aa8887015e10af74bb5f4a85588906dd8ce4e7e64ef6d1fb4e60da92a78364736f6c63430008110033",
  "linkReferences": {},
  "deployedLinkReferences": {}
}